:020000040002F8
:10100000D8720020151202001D1202001F120200E9
:10101000211202002312020025120200000000002B
:101020000000000000000000000000002712020085
:1010300029120200000000002B1202002D120200F3
:10104000691602002F120200B91902002F120200C5
:101050002F1202002F120200951302002F1202001D
:101060002F1202002F1202002F1202002F12020074
:101070002F1202002F1202002F1202002F12020064
:101080002F120200B91602002F1202002F120200C6
:10109000011702002F120200091702002F1202008E
:1010A0002F1202002F1202002F1202002F12020034
:1010B0002F1202002F1202000000000000000000AA
:1010C0002F1202002F1202002F1202002F12020014
:1010D000ED1602002F1202002F1202000000000085
:1010E0000000000000000000000000000000000000
:1010F00000000000000000000000000000000000F0
:1011000000000000000000000000000000000000DF
:1011100000000000000000000000000000000000CF
:1011200000000000000000000000000000000000BF
:1011300000000000000000000000000000000000AF
:10114000000000000000000000000000000000009F
:10115000000000000000000000000000000000008F
:10116000000000000000000000000000000000007F
:10117000000000000000000000000000000000006F
:10118000000000000000000000000000000000005F
:10119000000000000000000000000000000000004F
:1011A000000000000000000000000000000000003F
:1011B000000000000000000000000000000000002F
:1011C000000000000000000000000000000000001F
:1011D000000000000000000000000000000000000F
:1011E00000000000000000000000000000000000FF
:1011F00000000000000000000000000000000000EF
:10120000DFF80CD000F078F800480047FD3F0200FE
:10121000D87200200648804706480047FEE7FEE7F0
:10122000FEE7FEE7FEE7FEE7FEE7FEE7FEE7FEE796
:1012300051170200011202000048704708780200AE
:1012400040EA01039B0703D009E008C9121F08C048
:10125000042AFAD203E011F8013B00F8013B521EC8
:10126000F9D27047D2B201E000F8012B491EFBD23F
:1012700070470022F6E710B513460A4604461946A1
:10128000FFF7F0FF204610BD421C10F8011B00299B
:10129000FBD1801A70472DE9F05F05460020924689
:1012A0009B4688460646814640241BE02846414628
:1012B0004746224600F041F853465A46C01A91412B
:1012C00010D311461846224600F028F82D1A67EB75
:1012D00001084F4622460120002100F01FF817EBBD
:1012E00000094E41201EA4F10104DFDC48463146CE
:1012F0002A464346BDE8F09F064C074D06E0E068ED
:1013000040F0010394E8070098471034AC42F6D34C
:10131000FFF77AFFC47D0200E47D0200202A04DB8F
:10132000203A00FA02F1002070479140C2F12003F8
:1013300020FA03F3194390407047202A04DB203A37
:1013400021FA02F00021704721FA02F3D040C2F1E5
:101350002002914008431946704730B58C1810F8A8
:10136000012B12F00F0301D110F8013B120906D135
:1013700010F8012B03E010F8015B01F8015B5B1E24
:10138000F9D101E001F8013B521EFBD1A142E6D3A5
:10139000002030BD2DE9F04F89B04FF0000800204B
:1013A00008904FF4807007900126002413E00798FE
:1013B00003F026FD48B100BF81480068304020B1ED
:1013C000079803F00FFD48EA060876000798001D0D
:1013D00080B20790641C082CE9D34FF4BE7003F070
:1013E0000FFD50B14FF4BE7003F0FCFC48F0004814
:1013F00008AA0121002003F0DBFC08F0FF0000B385
:10140000012600241BE006EA0800B0B100BF6D48C9
:1014100050F82400C0F30420074600BF694850F884
:101420002400C0F301408146204601F023FE05461A
:1014300015B149463846A84700BF7600641C082C01
:10144000E1D308F0004000287ED0002006900590EF
:10145000002505E04FF0FF3004A941F825006D1C80
:10146000002DF7D000BF0020069000246FE0564802
:10147000005D0390039820F0C00753480057401CBC
:10148000002863D004A9384602F00CFF00285DD084
:1014900003984FEA901A384601F0F4FD814601F0B6
:1014A000E9FD0290029810B9BAF1030F4BD1BAF1DD
:1014B000030F11D1394605A80246CB0801F00701F8
:1014C00012F803C04FF0010E0EFA01FE4CEA0E0CAA
:1014D00002F803C000BF00BF00BF00BF4FF0A04133
:1014E000084600F5E06151F82710C1F3014900BF3B
:1014F00008A9384602F0D6FE8346BBF1000F02D0A1
:10150000B9F1020F05D0BBF1000F1BD1B9F1030FE8
:1015100018D1BAF1030F0FD1B9F1020F01D1032095
:1015200000E0022001903846019903F006FC06987D
:10153000401CC0B2069000BF029818B15146384610
:10154000029A904700BF00E036E000BF641C042C04
:101550008DD3069858B3012703AA0121002003F078
:1015600027FC00250AE003A850F8250008A951F837
:101570002510884201D0002702E06D1C002DF2D01A
:1015800000BF17B10020069010E000250CE003A872
:1015900050F8250008A941F8250005A850F82500B5
:1015A00004A941F825006D1C002DF0D000BF06985D
:1015B00000287FF458AF00BF09B0BDE8F08F0000ED
:1015C0000463004010650040F42B002000F01F026F
:1015D00001219140024A430942F82310704700005C
:1015E00080E200E000F01F0201219140024A43091D
:1015F00042F823107047000080E100E000F01F0275
:10160000012191404209920002F1E022C2F800114A
:10161000704700F01F02012191404209920002F13F
:10162000E022C2F80011704700F01F020121914032
:10163000024A430942F823107047000000E200E02C
:1016400010B5002807DA4A07140E054A00F00F0308
:101650001B1FD45403E04A07130E024A135410BD53
:1016600018ED00E000E400E010B54FF4807003F0E6
:101670007BF860B14FF4807003F07FF8012003F035
:1016800085F801200B494870002001F001FF4FF45C
:10169000827003F069F858B14FF4827003F06DF86E
:1016A000022003F073F801200249887001F0F0FE77
:1016B00010BD0000902B002010B5002009490860E3
:1016C00000210948C0F84411C0F84811C0F84C1175
:1016D00000200549C1F8000102493C39086005F0C5
:1016E000EBFC10BD401101400010014010B5042278
:1016F0000021024803F040F910BD00000040024004
:1017000010B505F0E3FB10BD70B50B48006880B163
:10171000094800688047044600BF25463DB100BF28
:10172000064A40F2D111284600F06EFD00BF00BF0E
:1017300001E002F0DFFA70BDE42700206C7D0200BA
:1017400001480249086070470090D00348280020F3
:1017500010B502F0E9F828B188480088C0F30420E9
:101760008749086002F00AF910B18648864948673F
:1017700002F01CF930B18148E0380068C0F3423013
:101780008249086002F03CF928B18148006820F0E5
:1017900080707F49086002F04BF948B100207D4914
:1017A00008604FF08041C1F810017849091F0860B6
:1017B00002F068F918B1032074496431086002F03E
:1017C00079F968B1052074490860012072497831BF
:1017D000086000207049083108603F20091F086038
:1017E00002F080F9002855D06448E03000686B4969
:1017F00008606248E4300068091D08605F48E8300E
:101800000068091D08605D48EC300068091D08602B
:101810005A48F0300068091D08605848F4300068E4
:10182000091D08605548F83000685C49203108609F
:101830005248FC300068091D086059480068091DBD
:1018400008605748001D0068091D086054480830AA
:101850000068091D086052480C300068091D0860C6
:101860004F48103000684D49403108604C481430F2
:101870000068091D08604A4818300068091D0860A2
:1018800047481C300068091D086045482030006842
:10189000091D086002F01EF830B13848CC380068E5
:1018A00000F04F003F49086039487438006840F440
:1018B000700037497439086000BF00BF00BFBFF334
:1018C0004F8F00BF00BF00BF00BF00BF00BFBFF30E
:1018D0006F8F00BF00BF00BF3348006800F00040BA
:1018E00028B93148001D006800F00040F0B3012025
:1018F0002E49086000BF2E4800680028FBD0152044
:101900002949086000BF2A4800680028FBD015213B
:101910002548001D016000BF254800680028FBD055
:1019200000202249086000BF214800680028FBD041
:1019300000BF00BF00BF00BF00BFBFF34F8F00BF9D
:1019400000BF00BF1248F038006800F4E060194999
:101950000843001D0E49F039086000BF00BF00BFFA
:10196000BFF34F8F00BF00BF00BF00E002E000BF29
:1019700000BFFDE7FFF7E4FE10BD000024030010E8
:10198000403501400DF0ADBA00C007403C050040B5
:10199000FCED00E00C0100401056004020C5004066
:1019A00024040010E40E00400012001004E5014081
:1019B00000E401400000FA0510B50648007F20B1A0
:1019C0000449054805F0D3FC03E00249024805F04C
:1019D0002DFC10BDFC2B0020002000400FB41CB5D6
:1019E0000246002007AC00290BD0491ECDE900219A
:1019F000054B6A462146069800F03AF8009A002105
:101A000011701CBC5DF814FBD31E020002E008C874
:101A1000121F08C1002AFAD170477047002001E068
:101A200001C1121F002AFBD1704700000146202986
:101A300008DA012088400A4A104008B101207047A6
:101A40000020FCE7402909DAA1F12000012202FA76
:101A500000F008B10120F2E70020F0E70120EEE7F6
:101A6000FC06FFBD00BFEFF31081084672B6704759
:101A70002DE9FF4F8DB00F460546002606E02528CC
:101A80000BD0DDE90F1290476D1C761C28780028DA
:101A9000F5D111B03046BDE8F08F0024A246A14632
:101AA0000122EC4900E0044315F8013F203B02FA13
:101AB00003F00842F7D128782A2810D06FF02F02BF
:101AC0002878A0F13001092914D80AEB8A0102EB29
:101AD000410144F0020400EB010A6D1CF0E701CF64
:101AE0005FEA000A03D544F40054CAF1000A44F046
:101AF00002046D1C28782E2817D115F8010F44F028
:101B000004042A280ED06FF02F022878A0F13001AB
:101B100009290AD809EB890102EB410100EB01090F
:101B20006D1CF2E757F8049B6D1C28786C280FD0C9
:101B300006DC4C2817D068280DD06A2814D104E0A0
:101B4000742810D07A280FD10DE044F400140AE074
:101B500044F4801401E044F440146978814202D1D5
:101B600004F580146D1C6D1C2A786E2A1FD00CDCC5
:101B7000632A31D004DC002A8BD0582A11D1A3E08B
:101B8000642A68D0692A0CD165E0732A2ED004DC5F
:101B90006F2A73D0702A04D19BE0752A6FD0782AFF
:101BA0006ED01046DDE90F129047761C50E1C4F369
:101BB0000250022806D0032809D0042801CF09D0FA
:101BC000066045E101CFF117C0E9006140E101CFB6
:101BD00006803DE106703BE117F8040B8DF800002C
:101BE00000208DF80100EB46012003E057F804BB0C
:101BF0004FF0FF3061074FF0000102D40DE008F113
:101C00000101884649450FDA8045F8DB1BF80810CA
:101C10000029F4D108E008F1010188468142FADB8D
:101C20001BF808100029F6D1DDE90F23AAEB080004
:101C30008146214600F036F9304400EB080604E006
:101C4000DDE90F121BF8010B9047B8F10108F7D23C
:101C500021464846F7E00A21C4F302534FF0000B37
:101C60000891022B04D001CFC117032B09D00AE041
:101C7000FF1D27F00707F7E8020108E032E01FE048
:101C800020E000B2C117042B01D140B2C117031EDE
:101C900071F1000307DA4FF0000CD0EB0C006CEB95
:101CA00001012D2302E0230504D52B238DF82430D8
:101CB000012303E0E30701D02023F7E7984658E02B
:101CC0000A2110E010210EE010204FF0000B0890C8
:101CD0000CE010214FF0000B44F004044FF0080911
:101CE000089103E008214FF0000B0891C4F3025360
:101CF000022B04D001CF0021032B06D006E0FF1DEC
:101D000027F00707F7E8020103E080B2042B00D1B7
:101D1000C0B24FF0000823072BD5702A07D0DDF89A
:101D200020C08CF0100C5CEA0B0C05D00EE04023B8
:101D30008DF82430012308E050EA010306D0302357
:101D40008DF824308DF8252002239846DDF820C038
:101D50008CF0080C5CEA0B0C0BD150EA010301D1AA
:101D6000630706D530238DF824304FF00108A9F120
:101D70000109582A04D038A20B9208AA0A920BE053
:101D80003AA2F9E75B46089AFFF785FA0B9B9B5C42
:101D90000A9A521E0A92137050EA0102F2D10A986E
:101DA000ADEB000000F1200B600702D524F4803475
:101DB00001E04FF00109D94502DDA9EB0B0000E07D
:101DC000002000EB0B0141440890AAEB010AE0035C
:101DD00006D4DDE90F232146504600F063F806449F
:101DE0004FF0000908E009A911F80900DDE90F1218
:101DF000904709F10109761CC145F4DBE0030CD5DD
:101E0000DDE90F232146504600F04CF8064404E07B
:101E1000DDE90F1230209047761C0899481E089083
:101E20000029F5DC08E00A980A990078491C0A9113
:101E3000DDE90F129047761CBBF10001ABF1010BFD
:101E4000F1DC21465046DDE90F2300F019F8064485
:101E50006D1C1BE60928010030313233343536372A
:101E600038396162636465660000000030313233E6
:101E70003435363738394142434445460000000086
:101E80002DE9F041044600251E461746880404D477
:101E900005E039462020B0476D1C641EF9D5284660
:101EA000BDE8F0812DE9F041044600251E4690462C
:101EB000C80301D5302700E02027880404D505E0B9
:101EC00041463846B0476D1C641EF9D52846BDE82A
:101ED000F0814A68002A06D00A68531C0B60107013
:101EE0004868401E486070470246002104E0505C8C
:101EF00008B101207047491C0629F8D30020F9E7F2
:101F00002DE9FC4104468846164600253788002006
:101F1000308094F82D0058B13A463146404600F0E2
:101F200084FD054600BF15B12846BDE8FC8100BF11
:101F3000A07850B13A463146404600F0A3FA054633
:101F400000BF0DB12846F0E700BFE07860B1E1784E
:101F500048B23B463246414601F008FE054600BF06
:101F60000DB12846E1E700BF606868B1616891F98A
:101F700000003B463246414605F034F9054600BFB5
:101F80000DB12846D1E700BF208900280EDD434669
:101F90000622022104F10800CDE9006705F0ECFA01
:101FA000054600BF0DB12846BFE700BF208A0028C4
:101FB0000EDD43460722032104F11000CDE900673E
:101FC00005F0DAFA054600BF0DB12846ADE700BFBF
:101FD000208B00280EDD43461522142104F1180041
:101FE000CDE9006705F0C8FA054600BF0DB12846E7
:101FF0009BE700BF206A58B13B4632464146206A03
:1020000001F0D3FA054600BF0DB128468DE700BFA9
:10201000606A58B13B4632464146606A02F0A6F813
:10202000054600BF0DB128467FE700BF94F82C009D
:1020300000280BDD3B4632464146204604F082FC38
:10204000054600BF0DB128466FE700BF207858B1A4
:102050003B4632464146204602F0C3F8054600BFE3
:102060000DB1284661E700BF28465EE770B504461B
:102070001448FFF739FF0546012C06D0022C0BD07F
:10208000032C10D0042C1AD113E00F48407810B163
:102090000DB1012070BD00BF0B48807810B10DB1AB
:1020A0000220F7E700BF0848C07808B10320F1E735
:1020B00000BF0548007908B10420EBE700BF00200D
:1020C000E8E7000086270020A02A00200146481CDF
:1020D000052290FBF2F302FB1300C0B270470146E9
:1020E000C87800F0040008B9072070470020FCE71A
:1020F00030B5A7B03C2118A8FFF7BBF802208DF837
:10210000600006208DF863003C2109A8FFF7B1F8B4
:102110000120ADF8340013490E91002013902021C6
:1021200001A8FFF7A6F801208DF807004FF496707C
:102130000590002006900C4B01AA09A9009018A850
:1021400000F08CFA044600BF25463DB100BF07A24F
:1021500040F22721284600F057F800BF00BF27B003
:1021600030BD000074270020295702002E2E5C2E5F
:102170002E5C2E2E5C6D61696E2E630070B50120A1
:1021800000F066FA032000F041FB044600BF25463C
:102190003DB100BF07A240F23B21284600F034F8D1
:1021A00000BF00BF112002F0E1FD122002F0E9FDA6
:1021B00070BD00002E2E5C2E2E5C2E2E5C6D616993
:1021C0006E2E630070B504460D4616460AA1012026
:1021D00003F0D2F800BF02F0D9FF00BF00BF02F049
:1021E000DBFF0028FBD100BF00BF32462946204656
:1021F00000F01AF870BD00003A4552524F523A466C
:102200006174616C0D0A0000FEB504460E46154669
:10221000B0B2ADF80000019502946A46002144F284
:102220000100FFF7CFFFFEBDFEB505460E46144682
:10223000012002909DF808002A48056046608460ED
:102240006FF48040284460B1012819D12548C4604A
:10225000C0680088234988610846C0684068C86132
:102260000EE020480461006980681E494861084604
:10227000006900888861084600694068C86100BF3D
:1022800000BF18480068174840681648806815481D
:10229000C0681448006913484069124880691148B1
:1022A000C06972B60F48006940680E49096909881B
:1022B000CDE900100B48006983680A4800690AA14B
:1022C0008268012003F04CF900BF00BF02F064FFF8
:1022D0000028FBD100BF00BF9DF808000028FBD1FB
:1022E00062B6FEBD1C2C00203A4552524F523A4570
:1022F00052524F523A203078255820282564292CF4
:10230000204C696E653A2025642C2046696C653A3C
:102310002025730010B503460C4600BF0B4880789B
:1023200008B9082010BD00BF0AB90720FAE70BB9A9
:102330000720F7E71868007C08B10820F2E7196861
:10234000002008744C744A6100BFEBE7B02C0020F9
:1023500010B504F0FFF900200F49087048700B20F9
:10236000887000200D4908600D4908700D490870FB
:102370001420FFF72BF907211420FFF761F914202F
:10238000FFF73CF9002004F0BBF904F0B3F906496B
:102390000860002010BD0000B02C0020C0270020E5
:1023A000D0270020D1270020C42700202DE9F041AC
:1023B00004460E461746254600BF1048807810B9DF
:1023C0000820BDE8F08100BF0CB90820F9E7052E10
:1023D00001D20720F5E7686908B90820F1E7687CB1
:1023E000012801D1304600E0002080463B464246AD
:1023F0003146284604F010FEE3E70000B02C002030
:1024000070B50446254600BF0848807808B9082002
:1024100070BD00BF0CB1686908B90820F8E700205A
:1024200028740221284604F026FEF1E7B02C002093
:1024300010B50446204604F02DFA10BD70B50446D0
:1024400025460E488068B0B1ADB9FFF70BFB0646D4
:102450000A4800680A490860084840684FF0E021CF
:10246000C1F804010020054988601EB900BF62B6AA
:1024700000BF00BF00BF00BF70BD00003C2C0020AB
:1024800000E100E0F8B505460C4617462088001D1F
:10249000B84201D90C20F8BD684679DF064600BF76
:1024A0000EB13046F7E700BF03202188685420882A
:1024B000401C20801920218868542088401C2080DE
:1024C00020884119BDF8000004F0DDFF2188084490
:1024D00020800020DFE7000070B505460C4620682C
:1024E000401C28B1206802F057FC206802F019FC5B
:1024F0006068401C18B10021606802F005FC287972
:102500002D4901EB4010007F50B32868A169C0F845
:10251000241500BF617D227D286841EA0203C0F8CE
:102520006C3500BFD4E90012286803F0F6F8207D6E
:1025300001283FD1A068401C18B10021A06802F01A
:10254000E3FBE068401C28B1E06802F025FCE0688D
:1025500002F0E7FBD4E90221286803F0CAF829E079
:102560002868A169C0F8241500BF617D227D286814
:1025700041EA0203C0F86C3500BFD4E900122868B4
:1025800003F09EF8207D012814D1A068401C18B1EA
:102590000021A06802F0B8FBE068401C28B1E068A8
:1025A00002F0FAFBE06802F0BCFBD4E902212868E3
:1025B00003F06FF870BD0000FC2B00202DE9F04106
:1025C00092B080460D461F2011901090B8F1000F78
:1025D00017D04046FFF783FD044600BF1CB12046DC
:1025E00012B0BDE8F08100BF11AA08A94046FFF76C
:1025F00087FC044600BF0CB12046F1E700BF08AEDF
:1026000002E0002600201190ADB1284604F0E0FB66
:10261000044600BF0CB12046E2E700BF10AA69469D
:102620002846FFF76DFC044600BF0CB12046D7E7F3
:1026300000BF6F4602E0002700201090BDF8400068
:10264000C3B2BDF84400C1B23A46304672DFC7E7B4
:102650000149087070470000842700202DE9F047E9
:1026600004460F4615461E46DDF8208004B115B914
:102670000E20BDE8F0870120494908700020494933
:102680000870202229464848FEF7DAFD0020474915
:102690000870474806604748C0F800804FF6FF7052
:1026A00045490880454800210160818081713C21B5
:1026B0004348FEF7DEFD207841490870A078887015
:1026C000E078C870607848700846D4E90412C0E920
:1026D0000412D4E90212C0E90212D4E90612C0E9D8
:1026E0000612606AD8B13748354948623649816078
:1026F000606A00883249496A0880606A8088304987
:10270000496A8880002005E0616A8968095C2E4A70
:102710001154401C2A49496A89888142F4D8A06A28
:1027200020B32A492A4881602549886227492448DC
:10273000806A8160A06A80882149896A8880A06A4D
:1027400000881F49896A0880002005E0A16A89681D
:10275000095C1E4A1154401C1949896A89888142C2
:10276000F4D894F82C00164981F82C00206A58B14E
:10277000184813490862206A4088096A4880206A1C
:1027800000880F49096A0880606810B10C496068C8
:10279000486039460A48FFF711FF8146484668E716
:1027A0008027002083270020A02A002084270020E3
:1027B00094270020982700209227002085270020BA
:1027C000C02A0020FC2A0020082B0020342B0020E7
:1027D000282B00208E27002010B5044620881028C2
:1027E00004D0112806D01B280CD107E0204603F0A6
:1027F0003FFC08E0204603F089FD04E0204603F09A
:1028000037FE00E000BF00BF10BD00007FB50546E9
:102810004E48007810B9082004B070BD4C480570CF
:1028200001F0BFF920B101204A4908700020F3E708
:10283000494800210160818081714848407818B181
:102840004348007801280DD04448807818B14048AA
:102850000078012806D04148807888B13C4800784B
:1028600002280DD13E48006838B101203D4908706A
:1028700008203B490968884702E000203949087070
:102880002846FFF7F3FB3249087035480068C0B1AD
:1028900008460078032803D008460078042810D1A1
:1028A0002E48007868B13048007850B900202F4990
:1028B000087001202E4908700720294909688847B7
:1028C00002E000202A490870002000900190029048
:1028D00003908DF800008DF808001D480078052849
:1028E0001CD2DFE800F01703080D1200684604F060
:1028F0007FF8044613E0684604F08AF804460EE0C8
:10290000684604F09BF8044609E0684604F0C6F8FF
:10291000044604E000201749087000E000BF00BF33
:102920000B48007838B114480178684673DF0446D4
:102930000CB1204670E70A48006820B10D480078C5
:10294000074909688847002066E7000080270020C3
:10295000832700208127002085270020A02A00202F
:10296000942700208C2700209C2700209E270020F1
:102970009D270020822700208427002070B505466F
:102980001C2229461248FEF75BFC00201149087002
:10299000286850B1104829680A6802604968416097
:1029A0007ADF04463CB1204670BD0B487BDF04460D
:1029B0000CB12046F8E74FF6FF7008490880002068
:1029C00007490870074A00210748FFF7A3FCEBE717
:1029D000542B0020B4270020A0270020AA27002085
:1029E000A8270020A1740200D476020010B5044686
:1029F0002088102806D0112808D012280ED0502880
:102A000010D107E0204603F017FB0CE0204603F04E
:102A10005DFC08E0204603F053FD04E0204603F08F
:102A2000FFFA00E000BF00BF10BD2DE9FC410546E4
:102A30000C46174620880930B84202D90C20BDE860
:102A4000FC8168466DDF064600BF0EB13046F6E7F2
:102A500000BF0820218868542088401C20801B204B
:102A6000218868542088401C208020882844DDF874
:102A700001100160BDF8051081802088801D208034
:102A80009DF80000400818B900202188685402E031
:102A90000120218868542088401C20800020CEE737
:102AA0007FB5044600BF01208DF80E0041F60A00F4
:102AB000ADF80C0000BF564A03A90120A0DF05466F
:102AC00015B1284604B070BD208800280DDD51489E
:102AD0000090228804F13C0342F62920616800F04E
:102AE000D7FA05460DB12846ECE7208900280DDD10
:102AF00049480090228904F13C0342F62420E16811
:102B000000F0C6FA05460DB12846DBE7208A00280A
:102B10000DDD42480090228A04F13C0342F6252054
:102B2000616900F0B5FA05460DB12846CAE7208B69
:102B300000280DDD3A480090228B04F13C0342F658
:102B40002720E16900F0A4FA05460DB12846B9E74F
:102B5000208C00280DDD33480090228C04F13C03CA
:102B600042F62620616A00F093FA05460DB1284628
:102B7000A8E7208D00280DDD2B480090228D04F160
:102B80003C0342F62820E16A00F082FA05460DB1C6
:102B9000284697E7206B90B101A8216B04F020F93B
:102BA000224804F13C03082201A9009042F62320A8
:102BB00000F06EFA05460DB1284683E700BF606B52
:102BC00070B11B480090606B027904F13C0301680E
:102BD00042F62A2000F05CFA05460DB1284671E75E
:102BE000A06B90B101A8A16B03F0FAFC114804F1AD
:102BF0003C03072201A9009042F6502000F048FA59
:102C000005460DB128465DE700BF00205AE70000E9
:102C1000FC270020FE270020062800200E28002088
:102C2000162800201E280020262800202E280020FC
:102C3000362800203E28002010B50446204602F029
:102C400091FD2046FFF7D2FE2046FFF7C5FD214645
:102C5000044801F04DFB22460349024800F006F803
:102C600010BD0000542800201C27002070B5064627
:102C70000C46154628883A2832D006DC10280BD09E
:102C8000112810D024283FD115E0502818D05728FB
:102C900012D0752838D11EE01DA1032002F06CFB74
:102CA000A888208031E022A1032002F065FB4FF6C6
:102CB000FF70208029E028E0204603F0F5FB24E0A7
:102CC000AB7CEA8822A1032002F0C0FB2946204603
:102CD00002F048FF19E02AA1032002F04DFB14E0A6
:102CE00031A1032002F048FB2188B01D00EBC10098
:102CF000807884F840002188B01D00EBC100408836
:102D0000C01EA4F84A0000E000BF00BF70BD000074
:102D10003A494E464F3A436F6E6E656374696F6E03
:102D20002065737461626C69736865642E0D0A00B6
:102D30003A494E464F3A446973636F6E6E656374E9
:102D400065642066726F6D20706565722E0D0A00D5
:102D50003A494E464F3A57726974652068616E640D
:102D60006C653A203078253034582C2076616C75AB
:102D7000653A203078253034582E0D0A00000000C6
:102D80003A494E464F3A53445F424C455F474150A3
:102D90005F434F4E4E5F504152414D5F555044414D
:102DA00054452E0D0A0000003A494E464F3A424C17
:102DB000455F47415454435F4556545F4558434827
:102DC000414E47455F4D54555F5253502E0D0A00FA
:102DD00070B504460D462846FEF756FA2080656019
:102DE00070BD70B50446204604F047FB054605F06B
:102DF000010070BD70B588B051480068079000BFF1
:102E000000234FF498724F4907A803F08BFF054643
:102E100000BF2E463EB100BF4BA240F2DF1130464C
:102E2000FFF7F2F900BF00BF00BF0020069006A820
:102E300003F0C4FE044600BF25463DB100BF42A2D8
:102E40004FF4F2712846FFF7DFF900BF00BF002002
:102E500003900490059001208DF80C00F720ADF848
:102E60000E0003A92320069A69DF044600BF254609
:102E70003DB100BF34A240F2ED112846FFF7C4F97E
:102E800000BF00BF0020009001900290FF208DF84D
:102E9000020001208DF800006946069A69DF0446A9
:102EA00000BF25463DB100BF27A24FF4FB71284665
:102EB000FFF7AAF900BF00BF002000900190029028
:102EC00001208DF8000000208DF801008DF802002F
:102ED00069464020069A69DF044600BF25463DB199
:102EE00000BF19A24FF4FF712846FFF78DF900BF0C
:102EF00000BF06A803F078FE044600BF25463DB19A
:102F000000BF11A240F203212846FFF77DF900BF60
:102F100000BF114803F05CFE044600BF25463DB1EA
:102F200000BF09A240F207212846FFF76DF900BF54
:102F300000BF0AA1032002F01FFA08B070BD000014
:102F4000B0760200702800202E2E5C2E2E5C2E2ED5
:102F50005C6D61696E2E6300392C02003A494E4661
:102F60004F3A424C4520737461636B20696E6974FB
:102F700069616C697A6564210D0A000002460029C6
:102F800001DA002003E013680B441360012070474E
:102F90002DE9FC4704460D46641C0127B846002075
:102FA000019001A8FFF744FA1C48006828601B48FC
:102FB00000681A494968411A18488068401C461A36
:102FC00004EB0709B1451CD9C6B11548006800904B
:102FD00014480068009960F39F2100910F48009AFF
:102FE00000680E490968491C0C4B1960194689682C
:102FF000084003F10C0141F8202000BF4FF0000809
:1030000004E0064800682044044908609DF8040074
:10301000FFF714FA4046BDE8FC870000BC2E0020F4
:1030200060770200E02700200448406803490968EF
:10303000884201D1012070470020FCE7BC2E00200F
:1030400030B502460B4602210EE08C0042FA04F431
:1030500004F00F00092802DD00F1370401E000F15F
:103060003004C1F101055C550C1EA1F10101ECD148
:1030700030BD00000146024850F8210070470000B2
:10308000A42B00200146014840567047D42B002055
:103090002DE9F0438FB007460D4614461E46DDF875
:1030A000588000BF0DB1012000E000208146B9F139
:1030B000000F06D100BF35A287210020FFF7A4F83A
:1030C00000BF00BF00BF002C01DD012000E0002098
:1030D0008146B9F1000F06D100BF2CA28821002043
:1030E000FFF792F800BF00BF1C2107A8FEF7C1F848
:1030F0009DF81C0020F00200801C8DF81C000020B0
:1031000008900A900B900C900D9000BF01208DF854
:103110003A00ADF8387000BF0020019030788DF88B
:10312000040070788DF805009DF8060020F0060078
:10313000801C8DF806009DF8060020F008008DF830
:1031400006009DF8060020F010008DF806009DF89E
:10315000060020F001008DF80600142102A8FEF7F9
:1031600088F80EA8029001A80390ADF81040002046
:10317000ADF81200ADF814400695434602AA07A91F
:1031800012480088A2DF0FB0BDE8F0832E2E5C2E1F
:103190002E5C2E2E5C2E2E5C2E2E5C2E2E5C636FF3
:1031A0006D706F6E656E74735C626C655C626C658D
:1031B0005F73657276696365735C626C655F646991
:1031C000735C626C655F6469732E6300FC2700208A
:1031D00070B586B00446B4F84A000590206DB0F58D
:1031E000806F06D3002084F854002065E06406B0A8
:1031F00070BDBDF81410C1F58061206D884202D306
:1032000002201E4948711E4B0FCB01AD0FC5A08E89
:10321000ADF8040005A80390002529E01749206DAA
:103220000870020A4A70020C8A70020ECA7000BF4F
:10323000208801A9A6DF0546132D03D1012084F8BB
:10324000540017E025B12A460EA1012002F0C4F86F
:10325000BDF81410206D084420651548236D0268E0
:103260000068401C124E13A13060132002F0EEF8EB
:10327000002DD3D000BF00BFB9E70000A029002077
:10328000B47602003A4552524F523A73645F626C10
:10329000655F67617474735F68767828292066615A
:1032A000696C65643A203078253032580D0A000088
:1032B0007C27002048564E233A20253033643A209C
:1032C000253034640A0D000070B590B006460C46F7
:1032D0001546A07818B901208DF80E0002E0A078FC
:1032E0008DF80E002088ADF80C0000200290607C64
:1032F00002A903F003FCA07C0DF1090103F0FEFB21
:10330000E07B08B1012000E000209DF80A1060F386
:10331000C3018DF80A10207C08B1012000E00020D4
:103320009DF80A1060F304118DF80A10207B08B193
:10333000012000E000209DF80A1060F300018DF8E4
:103340000A10207D08B1022000E001209DF80A103B
:1033500060F342018DF80A101C2109A8FDF789FFCE
:10336000607BC0F3001018B9607BC0F34010F8B167
:1033700000200090E07C0DF1010103F0BFFB00BFD5
:103380009DF8000020F00F00401C8DF800009DF813
:10339000000020F0F00010308DF8000000BF9DF814
:1033A000020020F00600801C8DF80200CDF838D015
:1033B000607B8DF82400A07B8DF82500142104A8E3
:1033C000FDF757FF03A8049002A80590A088ADF868
:1033D0001C00A06820B1E088ADF81800A068089033
:1033E000A069002849D000200190A0690088ADF8AC
:1033F0002C00A0694088ADF82E00A06940680A90B2
:1034000001A80D90A169087B01A903F077FBA169D0
:10341000487B0DF1050103F071FBA069807A08B1CA
:10342000012000E000209DF8061060F3C3018DF834
:103430000610A069C07A08B1012000E000209DF8C4
:10344000061060F304118DF80610A069007A08B127
:10345000012000E000209DF8061060F300018DF8C7
:103460000610A069807B08B1022000E001209DF8D1
:10347000061060F342018DF80610E06908B1E069BA
:103480000C902B4604AA09A93046A2DF10B070BDEB
:1034900070B505460DB9094C01E0084C083409E047
:1034A000204600F0E1FC064606B904E028467168B3
:1034B000884700BFF4E700BF70BD0000982B0020D4
:1034C0002DE9F04782461F480068002836D01D4885
:1034D0000068056803F00EF907461B48046821469A
:1034E000384603F0E7FCC61C1848007808B903F01A
:1034F00013F9AE4201D2284600E03046044424F0DD
:103500007F44204603F0F0F803F0F4F88046394693
:10351000404603F0CFFC00F103093946204603F092
:10352000C9FC814509D903F0E5F8814603F0DCF8D0
:103530002F2001F031F903F00BFE01E003F00AF94E
:10354000BDE8F087C0270020C4270020D227002034
:1035500001460888062808DB0888B0F5486F06DDB4
:1035600008884FF6FF72904201D0072070474888C4
:10357000062808DB4888B0F5486F06DD48884FF616
:10358000FF72904201D00720F0E708884FF6FF72E3
:10359000904208D04888904205D008884A889042D6
:1035A00001DD0720E2E70020E0E72DE9F0410646D3
:1035B0000D46144698462088801D404502D90C20AF
:1035C000BDE8F0813046FFF7C3FF074600BF0FB1EB
:1035D0003846F5E700BF0520218868542088401C44
:1035E00020801220218868542088401C2080228856
:1035F0005119308803F047FF218808442080228831
:103600005119708803F03FFF218808442080002072
:10361000D6E7000010B5044600BF03A2EB21204608
:10362000FEF7F2FD00BF10BD2E2E5C2E2E5C2E2E5E
:103630005C6D61696E2E630030B589B0002000902A
:1036400001901C2102A8FDF714FE0620ADF8000031
:103650004FF4A070ADF802000020ADF804004FF464
:10366000C870ADF80600CDF808D04FF420300390B4
:103670004FF47020049003208DF814000020ADF862
:1036800016008DF818000B4807900B48089002A808
:10369000FFF774F9044600BF25463DB100BF07A2FD
:1036A00040F209112846FEF7AFFD00BF00BF09B088
:1036B00030BD0000E15F0200153602002E2E5C2EA8
:1036C0002E5C2E2E5C6D61696E2E630038B51B4832
:1036D00000F0B8FB20BB1A48007848B1194840698F
:1036E000E8B100200090174841696846884716E015
:1036F0001548007810B91348456801E011488568FD
:103700000022294611480068FEF750FE044634B1F5
:103710000C48806918B10B4881692046884709E048
:103720000848406930B10120009006484169684668
:10373000884700BF00200249087038BDAC27002030
:10374000B4270020542B0020A8270020D4760200A4
:103750007CB504460D46A81D00EBC40082792346C3
:103760000F49042001F072FE002000900190A81D76
:1037700000EBC4008079ADF80000A81D00EBC40088
:103780008079ADF8020000226946204690DF0646A7
:103790002EB1334622460349012001F057FE7CBD7D
:1037A000647C0200FC7A020030B595B0402104A888
:1037B000FDF75FFD1FA104A8FFF70AFB22A106A8E1
:1037C000FFF706FB24491120CDE9001023480290A1
:1037D000CDF840D000BF9DF84C0020F00F00401CF9
:1037E0008DF84C009DF84C0020F0F00010308DF862
:1037F0004C0000BF00BF9DF84D0020F00F018DF878
:103800004D109DF84D0020F0F0018DF84D1000BFD7
:1038100004A8FFF745F9044600BF25463DB100BFA7
:103820000FA24FF415712846FEF7EEFC00BF00BF53
:1038300015B030BD4E6F7264696353656D69636F17
:103840006E647563746F72004E532D4250532D4554
:1038500058414D504C45000055443322887766004E
:103860002E2E5C2E2E5C2E2E5C6D61696E2E6300FA
:10387000014614480078144A127890421DD011482D
:103880000078401C0F4A107010460078022801D1C1
:10389000002010700D480B4A127850F82200086082
:1038A0000B4A086812681044094A10601046006804
:1038B00020F07F401060012070470020086000BFAA
:1038C000FAE70000D0270020D1270020C8270020D9
:1038D000C427002013480078062820D11148001D75
:1038E000007800F00F00D0B90E480830007800F0E2
:1038F000F000302801D1012070470A4808300078D4
:1039000000F0F000402801D10120F5E7054808301B
:10391000007800F0F000502801D10120ECE70020F1
:10392000EAE70000E00F00F013480078062820D1F5
:103930001148001D007800F00F00D0B90E48083083
:10394000007800F0F000302801D1012070470A48CB
:103950000830007800F0F000402801D10120F5E7A0
:1039600005480830007800F0F000502801D101200F
:10397000ECE70020EAE70000E00F00F00A480078DA
:1039800006280ED10848001D007800F00F0040B94D
:1039900005480830007800F0F000302801D10120FF
:1039A00070470020FCE70000E00F00F013480078AB
:1039B000062820D11148001D007800F00F00D0B972
:1039C0000E480830007800F0F000302801D10120C6
:1039D00070470A480830007800F0F000402801D114
:1039E0000120F5E705480830007800F0F000502885
:1039F00001D10120ECE70020EAE70000E00F00F031
:103A00000A48007806280ED10848001D007800F00A
:103A10000F0040B905480830007800F0F000302869
:103A200001D1012070470020FCE70000E00F00F00A
:103A300013480078062820D11148001D007800F0B6
:103A40000F00D0B90E480830007800F0F0003028A0
:103A500001D1012070470A480830007800F0F000DA
:103A6000402801D10120F5E705480830007800F032
:103A7000F000502801D10120ECE70020EAE7000027
:103A8000E00F00F00A48007806280ED10848001D13
:103A9000007800F00F0040B905480830007800F0C9
:103AA000F000302801D1012070470020FCE7000021
:103AB000E00F00F00A48007806280ED10848001DE3
:103AC000007800F00F0040B905480830007800F099
:103AD000F000302801D1012070470020FCE70000F1
:103AE000E00F00F00A48007806280ED10848001DB3
:103AF000007800F00F0040B905480830007800F069
:103B0000F000502801D1012070470020FCE70000A0
:103B1000E00F00F0F0B5034600241FE0124E3068BD
:103B200006689E4203D90668F61A06601AE006681F
:103B30009B1B06683444002606600B4E35680A4F0E
:103B4000C6693E60C66846B10E1926F07F464660DB
:103B5000C66886601668C661156000BF02480068C6
:103B60000028DBD100BFF0BDC027002030B50446DF
:103B70001088C01C984201D90C2030BD0220158845
:103B800048551088401C1080012015884855108821
:103B9000401C108015884C551088401C1080002057
:103BA000EBE708B5684600F02FF8009808B101204F
:103BB00008BD0020FCE7000010B5002821D0114B03
:103BC0000022001F196803E0814203D80A464968B1
:103BD0000029F9D152B11368841A9C4204D10068BB
:103BE00018441060104602E0506000E0186039B1DF
:103BF00002680B1A934203D10B681A4402604968A9
:103C0000416010BD4C280020014609B903207047CF
:103C10000248406E08600020F9E70000482C0020B0
:103C20003EB500BF9DF8000020F00F00401C009042
:103C30009DF8000020F0F0001030009000BF092235
:103C400017A168467CDF044600BF254635B100BF9A
:103C500016A2AB212846FEF7D7FA00BF00BF00200E
:103C6000019002900620ADF804004FF4A070ADF86A
:103C700006000020ADF808004FF4C870ADF80A0047
:103C800001A87ADF044600BF254635B100BF07A270
:103C9000B9212846FEF7B8FA00BF00BF3EBD0000BC
:103CA0006E52465F53706565640000002E2E5C2ED8
:103CB0002E5C2E2E5C6D61696E2E630070B5002146
:103CC000074800F0FAFA044600BF254635B100BFA8
:103CD00004A2C2212846FEF797FA00BF00BF70BDBC
:103CE000542800202E2E5C2E2E5C2E2E5C6D6169D9
:103CF0006E2E6300F8B52948007800B9F8BD00259C
:103D00002748006808B9012000E00020064600BFEF
:103D1000EDB92448007800B1F0E7684648DF044672
:103D2000052C01D1012511E034B100BF1E4AB52197
:103D30002046FEF769FA09E0009800F0C7FD1B482D
:103D4000006818B1194900980968884700BFEEB9A2
:103D50001448007800B1D1E7154800880090694602
:103D60001448006861DF0446052C01D101260CE0EF
:103D700034B100BF0C4ADD212046FEF745FA04E0CD
:103D80000C48006806490968884700BF0DB106B1B4
:103D900000E0BDE700BF00BFB0E70000EC27002057
:103DA000F8270020ED2700206C7D0200E827002086
:103DB000F4270020F027002070B504460D46207936
:103DC0001D4901EB4010007FF8B14FF48871206865
:103DD00001F088FC4FF49071206801F083FC4FF4EF
:103DE0009271206801F07EFC4FF4A271206801F00E
:103DF00079FC1249206801F085FC206800F0ACFDD8
:103E00000646294600F078FD14E04FF48E712068D4
:103E100001F038FC4FF4A271206801F033FC08492E
:103E2000206801F03EFC206800F096FD0646294619
:103E300000F062FD70BD0000FC2B002010030200AA
:103E40008000020001464888064A1288904206DB3C
:103E50004888044A5288904201DC012070470020C3
:103E6000FCE70000A02700200146086808B10268AE
:103E70000A607047F72101801721418000210171FC
:103E80004171FB2181711B21C17170472DE9F04106
:103E9000064600274748D0F8008078E016B134463F
:103EA000E66947E04448007800EB40014248001DC5
:103EB00000EBC105001F0078401C3F490870084610
:103EC00000788978884202D100203B4908706C68EC
:103ED000287801281AD0022802D0032817D107E039
:103EE000686803F055F800B10127002020744EE007
:103EF00007E030490868002101742E4AC169116049
:103F000000BF2C4800680028F3D140E000E03EE00C
:103F100000BF207C00B13AE0A8686060E868A0605B
:103F20002869E0606869A0612448007808B1002031
:103F3000606000BF224960680968401A20F07F4035
:103F40002049884208D21E496068096802F0B2FF21
:103F5000A168084420600FE019486168006802F019
:103F6000A9FF0546A068A84203D9A068401B2060AD
:103F700001E00020206000BF00206060A060012000
:103F800020740020E061204602F0CEFF00BF002E2A
:103F900084D109480078084949788842F8D11FB986
:103FA00004480068404502D00120BDE8F0810020AF
:103FB000FBE70000C0270020B02C0020D327002002
:103FC000C4270020FFFF7F0070B5002001F022FB16
:103FD000044600BF25463DB100BF04A240F22F2198
:103FE0002846FEF711F900BF00BF70BD2E2E5C2ED3
:103FF0002E5C2E2E5C6D61696E2E6300FFF7E4FF70
:104000001120142218E0014601231C4600252E46EB
:104010002F4600BF4FF0A048C44643EA440848EA90
:10402000850848EA062848EA07490CF5E06848F898
:10403000219000BF00BF401C9042E4D900BF00BFE8
:104040004FF4F010194908600020091D086000BFF6
:1040500017A21AA1032001F0BFF900BFFEF778F9FB
:1040600004463CB100BF22A240F263212046FEF785
:10407000CBF800BF00BFFEF7BDFEFFF7D1FDFFF795
:104080001DFE02F0ABFCFEF733F8FFF7D5FAFEF7A2
:1040900075F800BF01F080F808B902F00DFB00BF11
:1040A00000BF01F079F80028FBD1F3E708050050C4
:1040B00032323A31313A3037000000003A494E4648
:1040C0004F3A1B5B324A1B5B3B486E524620537093
:1040D00065656420737461727465642E20436F6D2E
:1040E00070696C656420402025730D0A0000000093
:1040F0002E2E5C2E2E5C2E2E5C6D61696E2E630062
:10410000F0B50B30154D20F007010024144A0FE0E4
:1041100003688B420BD38B4205D95E1A431847685C
:10412000C3E9006700E04368136002C004E0021DB9
:1041300010680028ECD12046002802D1286808B178
:104140000020F0BD064A07481060074A121A22F004
:104150000702C0E9002401202860D7E7502800208A
:104160004C280020DC320020D85200202DE9F041FC
:1041700005460E4614469846A888871C2088801C51
:104180003844404502D90C20BDE8F081FE2F01D90A
:104190000C20F9E7781C218870542088401C20806E
:1041A000FF20218870542088401C2080228891198B
:1041B000288803F068F9218808442080A88800280E
:1041C0000DDDA86808B90720DEE7AA8823889819BA
:1041D000A968FDF735F82088A988084420800020C8
:1041E000D2E72DE9F84F05460F4614469846287841
:1041F000012804D1687810B90720BDE8F88F20881D
:10420000801C404508D82878012807D12088801CC8
:1042100069780844404501D90C20EEE72088A8EBD6
:104220000000801E86B200962188891CC819694644
:104230007DDF814600BFB9F1000F01D04846DCE7C1
:1042400000BF2878022806D1BDF80000B04202DC89
:104250004FF0090A0BE04FF0080A2878012805D131
:104260006878B04202DC6878009000E00096BDF803
:104270000000FE2801D90C20BFE7BDF80000401C5B
:10428000218878542088401C2080208807F800A0CE
:104290002088401C20802088BDF800100844208021
:1042A0000020AAE730B502460B46D40802F0070208
:1042B000012090401D5D284030BD70B504460E467B
:1042C00000BF0CB90E2070BD00BFA661F720208092
:1042D0006080FB202071002505E0A11D01EBC500D9
:1042E000FFF7C8FD6D1C022DF7D30020EBE700009F
:1042F0002DE9F04105460E46B488022C01DBBDE8ED
:10430000F0813088242820D006DC102809D011281C
:104310000CD0232823D11DE03A280CD055281ED1DB
:104320000EE03146284601F0ADFE19E03146284640
:1043300002F00AF814E03146284602F05FF80FE078
:104340003146284602F00AF80AE03146284601F0D4
:10435000E5FE05E03146284601F07CFF00E000BFA5
:1043600000BFA81D00EBC400007908B3A81D30F8F9
:10437000341020469EDF074697B90021A81D00EBA8
:10438000C40001710121A81D00EBC4004171A81DEA
:1043900030F8342023460749042001F057F806E09E
:1043A000112F04D03A460449012001F015F800BF4E
:1043B00000BFA4E7E8780200E879020030B5BDB09C
:1043C0000446C44B0FCB38AD0FC5002020604FF61C
:1043D000FF7020804FF4A150ADF8F00001208DF85F
:1043E000F200A11C38A862DF054625B12A46BAA111
:1043F000012000F0F1FF22463CA90120A0DF054684
:1044000025B12A46BFA1012000F0E6FF202130A8F7
:10441000FCF72FFF41F22140ADF8C000A0788DF8E5
:10442000C2000120ADF8C40000208DF8CC000120AE
:104430008DF8D2008DF8D1009DF8CD0020F0080055
:1044400008308DF8CD009DF8CD0020F00200801CD2
:104450008DF8CD00221D30A93046FEF735FF054608
:1044600025B12A46B4A1012000F0B6FF202128A8DA
:10447000FCF7FFFE41F22240ADF8A000A0788DF8D5
:10448000A2000220ADF8A40000208DF8AC000120AD
:104490008DF8B2008DF8B1009DF8AD0020F0080055
:1044A00008308DF8AD009DF8AD0020F00200801CB2
:1044B0008DF8AD0004F10C0228A93046FEF704FF88
:1044C000054625B12A469CA1012000F085FF202148
:1044D00020A8FCF7CEFE41F22340ADF88000A07882
:1044E0008DF882000120ADF8840000208DF88C004A
:1044F00001208DF892008DF891009DF88D0020F03C
:10450000080008308DF88D009DF88D0020F0020025
:10451000801C8DF88D0004F1140220A93046FEF7AE
:10452000D3FE054625B12A4683A1012000F054FFA1
:10453000202118A8FCF79DFE41F22440ADF8600050
:10454000A0788DF862000120ADF8640000208DF89D
:104550006C0001208DF872008DF871009DF86D00DF
:1045600020F0080008308DF86D009DF86D0020F0F7
:104570000200801C8DF86D0004F11C0218A9304661
:10458000FEF7A2FE054625B12A466BA1012000F0E8
:1045900023FF202110A8FCF76CFE41F22540ADF866
:1045A0004000A0788DF842000120ADF844000020C2
:1045B0008DF84C0001208DF852008DF851009DF8C7
:1045C0004D0020F0080008308DF84D009DF84D009A
:1045D00020F00200801C8DF84D0004F1240210A987
:1045E0003046FEF771FE054625B12A4652A101204C
:1045F00000F0F2FE202108A8FCF73BFE41F2264025
:10460000ADF82000A0788DF822000120ADF824003C
:1046100000208DF82C0001208DF832008DF831003B
:104620009DF82D0020F0080008308DF82D009DF831
:104630002D0020F00200801C8DF82D0004F12C02CA
:1046400008A93046FEF740FE054625B12A463AA1A4
:10465000012000F0C1FE002004E00121414A115474
:10466000411CC8B2FF28F8DB20216846FCF701FE98
:1046700041F22740ADF80000A0788DF80200F72045
:10468000ADF8040000208DF80C008DF81200012018
:104690008DF811009DF80D0020F00200801C8DF8AF
:1046A0000D009DF80D0020F0100010308DF80D0069
:1046B00001208DF8130004F1340269463046FEF7FC
:1046C00003FE054625B12A461BA1012000F084FE09
:1046D0003DB030BDC47602003A4552524F523A7353
:1046E000645F626C655F757569645F76735F616452
:1046F000642829206661696C65643A2030782578E1
:104700002E0D0A003A4552524F523A73645F626C62
:10471000655F67617474735F736572766963655F03
:104720006164642829206661696C65643A20307888
:1047300025782E0D0A0000003A4552524F523A6336
:10474000686172616374657269737469635F6164DF
:10475000642829206661696C65643A203078257880
:104760002E0D0A00A029002001464FF0804040583D
:1047700008B1012070470020FCE708B500224FF087
:1047800080410A500958009100BF08BD01490860E6
:10479000704700000803004000B9704700BF00BF29
:1047A00000BF00BF00BF00BF00BF00BF00BF1E4969
:1047B00009681E4A914200D130E000BF00BF00BF2F
:1047C00000BF00BF00BF00BF00BF00BF00BF00BFF1
:1047D00000BF00BF00BF00BF00BF00BF00BF00BFE1
:1047E00000BF00BF00BF00BF00BF00BF00BF00BFD1
:1047F00000BF00BF00BF00BF00BF00BF00BF00BFC1
:1048000000BF00BF00BF00BF00BF00BF00BF00BFB0
:1048100000BF00BF00BF00BF00BF00BF401E00D0F0
:10482000BDE700BFB9E70000482800200024F400DD
:1048300010B500241648007808B1852425E0002032
:104840001349886048600861C86000BF00BF410923
:10485000890001F1E021D1F80011012282401140CC
:1048600009B1012100E0002119B90721002000F061
:1048700043F800BF02F0A6FA20B9012005490860FC
:1048800000BF00BF012002490870204610BD000093
:10489000902B00201805004008B5002000906846C5
:1048A000FDF7C6FD0848007808B9FFF7C1FF0648C4
:1048B000C068401C0449C860012088709DF8000051
:1048C000FDF7BCFD08BD0000902B002010B504468C
:1048D00014B90020FEF7DCFD10BD000000BF00F0A1
:1048E0001F0201219140034A430942F8231000BFEF
:1048F0007047000080E100E070B50B4601461A46A3
:10490000002907DA5407260E104C01F00F052D1F61
:10491000665503E05407250E0D4C655400BF00BFDB
:1049200000F01F02012191400A4A440942F8241074
:1049300000BF00BF00F01F02012191404209920018
:1049400002F1E022C2F8001100BF70BD18ED00E0D6
:1049500000E400E080E200E00146C1F3073250B21B
:104960007047014601F06040B0F1005F01D10120C5
:1049700070470020FCE700002DE9F04781460C4617
:1049800016464FF480374FF4A078002520E03946D2
:10499000484600F065FEA8B14146484600F05AFE80
:1049A00080B13946484600F052FE3946484600F08C
:1049B00054FE4146484600F043FEE8B21B4A52F816
:1049C000241088477F0008F104001FFA80F86D1C4E
:1049D000B542DCD34FF480780121484600F040FE18
:1049E00068B14146484600F035FE40B14146484670
:1049F00000F026FE0D4850F82410042088474FF49C
:104A000082780221484600F02BFE68B141464846B4
:104A100000F020FE40B14146484600F011FE034838
:104A200050F8241005208847BDE8F087B8270020FB
:104A30002DE9F04105460E46174628791C4901EB41
:104A400040144FF00008E07E20B14FF008084046C7
:104A5000BDE8F081707F207731462846FDF73CFDA8
:104A6000676030692060606818B1317F2846FFF7C1
:104A7000A3F900BF28790E4901EB4010007F28B14F
:104A800028680821C0F8001500BF05E02868042147
:104A9000C0F8001500BF00BF00BF0020E075207601
:104AA000A0750120E0760020A0764046D0E7000007
:104AB000FC2B00202DE9F04104460D46904620795C
:104AC000144901EB4016207901EB4010007F38B10A
:104AD0002846FFF746FF18B910273846BDE8F08191
:104AE000204600F09DF810B111273846F6E786F809
:104AF0001680B5600020B0822079064901EB401095
:104B0000007F18B1204600F04DF8E7E7204600F09E
:104B100003F8E3E7FC2B002070B504462079204918
:104B200001EB401500264FF48E71206800F0AAFDBD
:104B30000821206800F0C1FD2946206802F02EFB04
:104B4000686858BB12E000BF4FF48E71206800F017
:104B500092FD18B9A88AB0F5807FF5D1A88AB0F582
:104B6000807F03D02946206802F018FBA88AA97D1F
:104B70008842E8DBA88AB0F5807F01D10F260BE0E0
:104B800000BF4FF48E71206800F075FD0028F8D04A
:104B90000C21206800F091FD0020A875304670BD02
:104BA000FC2B00202DE9F041044620791B4901EB44
:104BB00040154FF000084FF49071206800F092FD0E
:104BC0004FF4AC71206800F08DFD2068AA7DA968C3
:104BD000C0F844154FF4A9631A5000BF082120689B
:104BE00000F098FD6868A8B900BF4FF49071206884
:104BF00000F071FD07464FF4AC71206800F06BFDCA
:104C000006460FB9002EF0D00EB14FF00F0800206D
:104C1000A87500BF4046BDE8F0810000FC2B0020D5
:104C200001460879044A02EB4010807D08B101205A
:104C300070470020FCE70000FC2B002070B5044604
:104C400020791F4901EB401500BF207901EB40108E
:104C5000007F28B120680021C0F8001500BF05E0E2
:104C600020680021C0F8001500BF00BF00BF6868C1
:104C7000F0B100BF2079124901EB4010007F50B124
:104C80001049206800F03BFD2068FFF765FE0646EE
:104C9000FFF724FE0AE00B498C39206800F0FEFC87
:104CA0002068FFF759FE0646FFF718FE00BF00BF59
:104CB000204601F02BFC0020E876686070BD000003
:104CC000FC2B002010030200F0B5DDE9054500BF14
:104CD0004FF0A0473E4641EA420747EA830747EACA
:104CE000042747EA054C06F5E06747F820C0F0BD09
:104CF0001CB50446002000900346012201460190A5
:104D00002046FFF7E1FF1CBD7CB505460C460020A0
:104D1000009023460246014601902846FFF7D4FF43
:104D20007CBD1CB5044600200090034601221146BC
:104D300001902046FFF7C8FF1CBD10B50A4600BF12
:104D40004FF0A043194601F5E06353F8203023F4F7
:104D5000403401F5E06343F8204053F8203043EA43
:104D6000024401F5E06343F8204010BD00BF4FF05E
:104D7000A0410A46012303FA00F1C2F80C1500BF56
:104D8000704700BF4FF0A0410A46012303FA00F12B
:104D9000C2F8081500BF704700BF4FF0A0410A4697
:104DA000012303FA00F1C2F8081500BF70470000A4
:104DB00038B50B46074C24680094014606E05DF8C0
:104DC0002140D4F810551560121D491CC4188C429E
:104DD000F5D838BDF0760200014601480844704716
:104DE0000060004038B504462046FFF7F5FF00217B
:104DF00001602046FFF7F0FF0068009000BF38BD5B
:104E000010B504462046FFF7E7FF0068012800D1EF
:104E100010BD0020FCE7000000487047A54E0200CE
:104E200030B589B004461A48007830B11948007886
:104E3000844202D1002009B030BD2022164901A8C9
:104E4000FCF7FEF900208DF81800062001900820DC
:104E5000029005200490072003904FF0EB7007901C
:104E60000E48FFF7EBFE0CB1002000E00C480246B4
:104E700001A90A48FFF7DCFD05460DB12846DAE72F
:104E8000012003490870034804700020D3E70000A4
:104E9000DC270020DD27002040770200D4270020F7
:104EA0001D7202002DE9F04FC9B08946924698461E
:104EB000DDF84CB1002006904646559858440590C0
:104EC000B9F1000F01D00A2000E00020049001F0A9
:104ED00015FD18B1404649B0BDE8F08FB8F1000F9C
:104EE0001DD109A8069A811806AA484602F036F98B
:104EF00008B94046EFE75046FCF7C6F90746C22F0F
:104F000001D9C22000E03846074609A9069A881848
:104F10003A465146FCF794F906983844069000BF8B
:104F2000069802900298313004990844019009A92A
:104F300002980C1801980D180020039005E020201D
:104F40002070641C0398401C0390DDE90301884233
:104F5000F5D30020079030E00598864209D3202041
:104F600004F8010B04F8010B04F8010B05F8010B20
:104F700020E05E4503D25298805D089004E0A6EBE5
:104F80000B015498405C089021460898FEF758F8A9
:104F9000A41C202004F8010BFCF74EF901680898C6
:104FA000085C00F03E0008B1089800E02E2005F8EB
:104FB000010B761C0798401C079007981028CBD34C
:104FC0000D2005F8010B0A2005F8010B202004F83C
:104FD000010B0498433006990844069009A80699E5
:104FE00001F096FC08B9304675E701F087FC08B17E
:104FF000304670E7002006900598864290D33046F0
:1050000069E72DE9F04FC7B083460F4615461C46A9
:10501000DDF840810026002006904FF0010A01F0E3
:105020006DFC18B1002047B0BDE8F08F07A8069AC4
:10503000811806AA384602F091F808B90020F2E774
:10504000B8F1070F6FD2DFE808F004142232445899
:105050006F002846FCF718F9064606983044FF28EA
:1050600006D807A9069A881832462946FCF7E8F8B8
:1050700073E02368069AC2F5807107AADDF818C0AC
:1050800002EB0C002A46FCF7A9FC064665E06068C6
:1050900000902368069AC2F5807107AADDF818C04F
:1050A00002EB0C002A46FCF799FC064655E0D4E9D1
:1050B0000101CDE900012368069AC2F5807107AAB3
:1050C000DDF818C002EB0C002A46FCF787FC064608
:1050D00043E0D4E902216068CDE901210090236812
:1050E000069AC2F5807107AADDF818C002EB0C0021
:1050F0002A46FCF773FC06462FE0D4E90123D4E9E5
:105100000310CDE90023CDE902102368069AC2F509
:10511000807107AADDF818C002EB0C002A46FCF7E4
:105120005DFC064619E017E0D4E90223D4E9041037
:10513000CDE90123CDE90310606800902368069A49
:10514000C2F5807107AADDF818C002EB0C002A46F0
:10515000FCF744FC064600E000BF00BF314606A84D
:10516000FDF70CFF8246DDF81890BAF1000F07D06A
:10517000B9F5807F04D807A8069901F0C9FB52E76A
:10518000002050E7004870470350020010B501208E
:10519000FFF746FE10BD00002DE9F04F8BB0FDF784
:1051A00043FF18B100200BB0BDE8F08F6848446899
:1051B00085682646641C06EA050065490C3151F8ED
:1051C00020000A900FE00A98C0F389100A9900EBBA
:1051D000915004442646641C06EA05005C490C31E3
:1051E00051F820000A900A9800F003000028EAD045
:1051F0004FF0000A0A98C0F3800000B100BF4FF0E2
:10520000000B0A9800F00300022871D12046641CAC
:1052100028404F490C3151F8200009900A984FEA74
:1052200090580A98C0F3891904EA0500691C081A05
:105230008700B84530D937B104EA050044490C313C
:1052400001EB800001E042480C3008900FB1384675
:1052500000E04046C0B2079017B13D480C3000E076
:105260000020069017B1A8EB070000E00020C0B2B4
:10527000059005A80BC8089ACDE90023CDE90210D6
:105280000A99C1F3C20032494B46D1F814C45146C1
:10529000099AE047814615E0002204EA05002C49FE
:1052A0000C3101EB8000CDE90182039200900A9954
:1052B000C1F3C20026494B46D1F814C45146099A9D
:1052C000E0478146C14506D108F1030004EB900494
:1052D0004FF0010B0AE00A9869F38F100A9006EA72
:1052E00005001B490C310A9A41F8202025E0FFE710
:1052F00004AF0A98800A03900A98C0F383184FF00D
:1053000000090AE02046641C284011490C3151F87C
:10531000200038603F1D09F10109C145F2D3CDF8E5
:1053200000800A99C1F3C200094904ABD1F810C446
:105330005146039AE047834600BFBBF1000F01D0FE
:1053400003484460FDF770FE80F001002BE7000089
:10535000BC2E002030B503460C461546FF200549FB
:1053600088600020086048602146184600F04AF92D
:1053700030BD0000BC2E00202DE9FC4104460D4646
:1053800000261348876801A93046FDF701FEE8B101
:105390001048006800900021009861F3820000909E
:1053A000009864F3C5000090009866F3891000909F
:1053B000009865F39F200090DDE90021481C3940EA
:1053C000019003480C3040F8212000BFBDE8FC816B
:1053D000BC2E0020647702002DE9FC4104460D46F6
:1053E000164601271748D0F8088001A93846FDF76E
:1053F000CFFD28B31448006800900021009861F3A5
:1054000082000090009864F3C5000090009867F354
:1054100089100090009865F39F200090DDE900213D
:10542000481C01EA0801019006480C3040F8212090
:10543000019800EA080003490C3141F8206000BFE0
:10544000BDE8FC81BC2E0020687702002DE9FC47F6
:1054500004460D46174698464FF0020919488668DB
:1054600001A94846FDF794FD48B31748006800902D
:105470000021009861F382000090009864F3C50059
:105480000090009869F389100090009865F39F20C0
:105490000090DDE90020411C3040019109490C31A8
:1054A00041F820200198411C3040019105490C3100
:1054B00041F820700198304041F8208000BFBDE8DD
:1054C000FC870000BC2E00206C7702002DE9FC4711
:1054D00004460E4617469846DDF828A04FF003090B
:1054E0001D48856801A94846FDF752FD88B31B4851
:1054F000006800900021009861F3820000900098FD
:1055000064F3C5000090009869F38910009000983A
:1055100066F39F200090DDE90020411C28400191A6
:105520000D490C3141F820200198411C284001917F
:1055300009490C3141F820700198411C2840019123
:1055400005490C3141F820800198284041F820A0FD
:1055500000BFBDE8FC870000BC2E00207077020071
:105560002DE9FC5F05460E4617469846DDE90CAB73
:105570004FF004092148846801A94846FDF708FD59
:10558000002839D01E48006800900021009861F37F
:1055900082000090009865F3C5000090009869F3C0
:1055A00089100090009866F39F200090DDE90020AC
:1055B000411C2040019111490C3141F820200198F3
:1055C000411C204001910D490C3141F82070019897
:1055D000411C2040019109490C3141F8208001987B
:1055E000411C2040019105490C3141F820A001984F
:1055F000204041F820B000BFBDE8FC9FBC2E002039
:1056000074770200024AC2F81004C2F814147047FA
:10561000BC2E00202DE9F041054600BF0020FFF719
:10562000FFFB04464CB9FFF7F7FB0646FFF7AAFD60
:1056300007462A463146FFF78DFE2046BDE8F08139
:1056400008B5002242504258009200BF08BDC0F881
:1056500048137047024650587047C0F80813704707
:105660000246D2F80403084070470146D1F880048E
:10567000C1F8800470470246505808B101207047B5
:105680000020FCE708B5002242504258009200BFBB
:1056900008BDC0F80815C0F810257047C0F80813F9
:1056A0007047C0F8041370470246D2F8040308405C
:1056B00008B1012070470020FCE7012242507047EA
:1056C000C0F81425C0F80C1570470146D1F88004C5
:1056D000C1F8800470470246505808B10120704755
:1056E0000020FCE708B5002242504258009200BF5B
:1056F00008BDC0F808154FF4A2631A507047C0F8EF
:1057000008137047C0F804137047014640F23C503C
:105710004058704701224250704740F20C531950D4
:1057200040F214531A50704710B504462CB1032CA4
:1057300006D105A1FFF720FE03E000F0BDFF00E069
:1057400000BF00BF10BD00003A494E464F3A4661C7
:105750007374206164766572746973696E672E0D67
:105760000A00000070B588B00546002428883B2850
:105770005ED00EDC1F2840D006DC01287DD010282A
:1057800016D011287AD131E021283BD02228F9D136
:10579000DEE0562862D004DC512870D05228F1D1C6
:1057A00077E09E286CD0A0F677200028EAD1EAE0C6
:1057B00077A10320FFF7E0FD002607E005F10900CF
:1057C000825D7BA11320FFF707FE761C062EF5DB1A
:1057D00078A11320FFF7D0FD1120FFF7D2FA122095
:1057E000FFF7C4FAA88874490880CEE01120FFF7BB
:1057F000BDFA1220FFF7C5FAC7E070A10320FFF73A
:10580000BBFDC2E0A88805F108018FDF044600BF98
:1058100026463EB100BF77A24FF4AC713046FCF78C
:10582000F3FC00BF00BF77A10320FFF7A5FDACE0AC
:105830007EA10420FFF7A0FD13215F48008876DFDA
:10584000044600BF26463EB100BF6AA24FF4B171C4
:105850003046FCF7D9FC00BF00BF96E07BA10420D6
:10586000FFF78AFD13215448008876DF044600BF05
:10587000264666B100BF5FA203E021E084E034E089
:105880007CE04FF4B5713046FCF7BEFC00BF00BFB2
:105890007BE076A10320FFF76FFDA88800231A465E
:1058A0001946A9DF044600BF26463EB100BF51A2FB
:1058B00040F271113046FCF7A7FC00BF00BF64E066
:1058C000A888002166DF044600BF26463EB100BF1F
:1058D00048A24FF4BB713046FCF796FC00BF00BFF6
:1058E00071A10320FFF748FD4FE01022A91D04A875
:1058F000FBF7A6FC9DF8100048B39DF8180004289B
:1059000007D09DF81800062803D09DF81800052838
:105910001DD19DF81000022802D18DF8000002E090
:1059200001208DF800004FF4C170ADF80400A88884
:105930006946A8DF044600BF26463EB100BF2DA23F
:1059400040F293113046FCF75FFC00BF00BF1CE043
:1059500005F108063078232804D15BA10420FFF765
:105960000BFD12E07378307808B963A000E065A001
:10597000024667A10320FFF769FD06E06EA1032040
:10598000FFF7FAFC01E000E000BF00BF08B070BD07
:105990003A494E464F3A1B5B324A1B5B3B48434FEA
:1059A0004E4E454354454421204144523A20000084
:1059B00025583A000A0D0000182700203A494E46A3
:1059C0004F3A436F6E6E656374696F6E20706172DB
:1059D000616D6574657220757064617465207265AF
:1059E0007175657374656420627920706565722EC7
:1059F0000D0A00002E2E5C2E2E5C2E2E5C6D616931
:105A00006E2E63003A494E464F3A50485920757001
:105A10006461746520726571756573746564206274
:105A20007920706565722E0D0A0000003A444542E7
:105A300055473A4741545420436C69656E7420546D
:105A4000696D656F75742E0D0A0000003A44454279
:105A500055473A4741545420536572766572205435
:105A6000696D656F75742E0D0A0000003A494E4647
:105A70004F3A412070657273697374656E74207358
:105A8000797374656D2061747472696275746520D0
:105A90006163636573732069732070656E64696EFA
:105AA000672E0D0A000000003A494E464F3A5573E2
:105AB0006572204D656D6F727920726571756573C1
:105AC000742E0D0A000000003A44454255473A4CF6
:105AD0004C207472616E73616374696F6E20636FC2
:105AE0006C6C6973696F6E20647572696E672050A3
:105AF00048592E0D0A000000616363657074656487
:105B00000000000072656A6563746564000000004F
:105B10003A494E464F3A5048592075706461746551
:105B20002025732E205048592073657420746F20EF
:105B300025642E0D0A0000003A494E464F3A534460
:105B40005F424C455F47415454435F455843484189
:105B50004E47455F4D54555F524551554553540D81
:105B60000A0000002DE9FC470546894609F10604B4
:105B7000618841F22542881A91427BD00ADC6FF499
:105B8000A150084480B1012831D0022864D00328F4
:105B900071D17BE001286FD002286ED0A0F5A05013
:105BA000DD380028F4D1E2E0207B85F8400095F84C
:105BB0004020F72374A10320FFF748FC95F840101C
:105BC00028889EDF0646082E04D178A10420FFF71E
:105BD000D3FB0BE000BF37463FB100BF7AA240F2D3
:105BE00003213846FCF710FB00BF00BFC9E07AA1D3
:105BF0000320FFF7C1FB217B607B41EA002025F8F1
:105C0000420F2A8881A10320FFF7E6FB4FF4C870FA
:105C1000ADF806000020ADF804002888ADF80200B9
:105C20002888ADF8000035F8420D694675DF064654
:105C3000112E04D17D490120FFF79EFB0BE000BF30
:105C400037463FB100BF60A240F222213846FCF740
:105C5000DBFA00BF00BF94E075A10320FFF78CFBC7
:105C6000B4F80A804046FEF74BFA0746207B3870AE
:105C7000227B03E02AE07FE03DE058E079A10320A9
:105C8000FFF7AAFB3846FDF797FF7AE07DA10320D6
:105C9000FFF772FBB4F80AA05046FEF731FA8046CF
:105CA000207B88F80000002708E018F807303A4603
:105CB00084A10320FFF7CAFB781CC7B2AAF1010038
:105CC000B842F2D24046FDF777FF5AE086A10320A2
:105CD000FFF752FBB4F80A804046FEF711FA074678
:105CE000207B3870227B8CA10320FFF775FB3846A0
:105CF000FDF762FF45E08DA10320FFF73DFB277B09
:105D00003A4696A10320FFF767FB012F02D0022F2E
:105D10000BD106E00120984908702846FDF758FA93
:105D200003E000209449087000BF00BF29E093A160
:105D30000320FFF721FBB4F80AA05046FEF7E0F974
:105D40008046207B88F80000002708E018F807301C
:105D50003A465CA10320FFF779FB781CC7B2AAF191
:105D60000100B842F2D24046FDF726FF09E08E4915
:105D70000320FFF701FB04E08CA10320FFF7FCFAEE
:105D800000BF00BFBDE8FC873A494E464F3A417418
:105D9000745F6D74753A2025642E204D6178206DF6
:105DA00074753A2025640D0A000000003A4445420B
:105DB00055473A4D545520616C7265616479207382
:105DC0006574206F6E6365002E2E5C2E2E5C2E2E69
:105DD0005C6366672E6300003A494E464F3A636F34
:105DE0006E6E5F696E74657276616C206368617255
:105DF000616374657269737469632076616C75653B
:105E000020757064617465642E0D0A003A494E462F
:105E10004F3A636F6E6E5F696E74657276616C2067
:105E2000627974652025642E0D0A00005478020002
:105E30003A494E464F3A446174615F6C656E5F65E6
:105E400078742063686172616374657269737469E0
:105E5000632076616C756520757064617465642E6D
:105E60000D0A00003A494E464F3A636F6E6E5F6905
:105E70006E74657276616C20627974653A2025646F
:105E80002E0D0A003A494E464F3A436F6E6E5F65DB
:105E900076745F6C656E5F6578745F656E61626C69
:105EA00065642063686172616374657269737469A3
:105EB000632076616C756520757064617465642E0D
:105EC0000D0A00003A494E464F3A636F6E6E5F69A5
:105ED0006E74657276616C20627974655B25645DB1
:105EE0003A25642E0D0A00003A494E464F3A436F58
:105EF0006465645F7068792063686172616374656A
:105F00007269737469632076616C7565207570645D
:105F1000617465642E0D0A003A494E464F3A506846
:105F2000793A2025642E0D0A000000003A494E46B9
:105F30004F3A436F6D6D616E642063686172616397
:105F400074657269737469632076616C7565207518
:105F50007064617465642E0D0A0000003A494E4673
:105F60004F3A537065656420636F6D6D616E643A7E
:105F70002025642E0D0A0000792700203A494E465C
:105F80004F3A5370616D206368617261637465722A
:105F900069737469632076616C75652075706461DE
:105FA0007465642E0D0A00000C7802003A494E46D2
:105FB0004F3A556E7265636F6E676E697A656420DD
:105FC0006368617261637465726973746963207672
:105FD000616C756520757064617465642E0D0A00CE
:105FE00070B50546287878B93B210848008876DFE7
:105FF000044600BF264636B100BF05A2E021304668
:10600000FCF702F900BF00BF70BD00001827002098
:106010002E2E5C2E2E5C2E2E5C6D61696E2E630022
:1060200010B504460349A2680A60E0684860FDF7BD
:106030004DFB10BDAC27002010B50446A0880849D0
:106040000880084922690A606069486000200649A2
:1060500008700648C08908B9FDF738FB10BD00007C
:10606000AA270020AC270020A8270020542B0020BE
:10607000C17B012902D18188014A1180704700004B
:10608000922700202DE9F04105468846B8F80470B3
:10609000A81D00EBC7042879A07198F80F0001280B
:1060A00002D0022806D102E02888208003E0688818
:1060B000208000E000BF00BF2088618888421CDD8E
:1060C00022883B4612490420FFF7C0F92188384650
:1060D0009EDF064616B9012060710EE0112E07D131
:1060E000012020713A460B490420FFF775F904E0BE
:1060F000324609490120FFF76FF9A079E17988421A
:1061000003DD29463846FDF723FBBDE8F08100009A
:10611000C47B0200F87C0200E879020070B590B000
:1061200004460E463422311D03A8FBF789F8BDF85A
:106130000C50BDF81000C1B2A01D00EBC500C1712C
:10614000A01D00EBC500C2792B4618490420FFF7BB
:106150007DF9BDF8122016A10420FFF73DF9BDF826
:1061600010201DA10420FFF737F9BDF8162024A147
:106170000420FFF731F9BDF814202BA10420FFF70C
:106180002BF9A06980B1324903C9CDE90101ADF80D
:106190000650A01D00EBC500C0798DF8080001A9CC
:1061A0002046A269904700BF10B070BDB47C0200C9
:1061B0006E72665F626C655F676174743A444542F3
:1061C00055473A6D61785F72785F6F637465747379
:1061D0003A2025750D0A00006E72665F626C655F7D
:1061E000676174743A44454255473A6D61785F740B
:1061F000785F6F63746574733A2025750D0A00002B
:106200006E72665F626C655F676174743A444542A2
:1062100055473A6D61785F72785F74696D653A20B1
:1062200025750D0A000000006E72665F626C655F86
:10623000676174743A44454255473A6D61785F74BA
:10624000785F74696D653A2025750D0A00000000BD
:10625000E87602002DE9FC470746884600200090BA
:10626000019008F104042188B81D00EBC10994F8DD
:1062700004A02288534612490420FFF7E7F899F852
:106280000600504502DA99F8060000E0504606463E
:10629000ADF80060ADF80260238832460949042059
:1062A000FFF7D4F820880022694690DF054625B123
:1062B0002A4605490120FFF78FF8BDE8FC8700005A
:1062C00094790200187C02009C7A020070B50546A1
:1062D0004FF6FF70094908800020094908700948F5
:1062E0000068FCF78DF8044634B10748806918B19E
:1062F000054881692046884770BD0000AA27002014
:10630000A8270020D4760200542B002070B5054643
:1063100000200A490870A8880949098888420BD1D9
:106320000120FCF773FA044634B10648006818B13E
:10633000204604490968884770BD00009C2700205A
:10634000922700209827002070B504460D46AA88A1
:10635000A11D01EBC200FDF78DFD70BD2DE9FC47CD
:1063600006468846B8F80450B8F80690B01D00EB11
:10637000C5044B462A461D490420FFF767F8B9F1CA
:10638000170F01DA172000E048468146208848456B
:1063900001DD484600E020886080002020710095E3
:1063A0002388628812490420FFF790F82188284644
:1063B000ADDF074627B13A460E490120FFF70CF83A
:1063C000607908B1BDE8FC87B06968B10A4903C9C2
:1063D000CDE90001ADF802506088ADF804006946CF
:1063E0003046B269904700BF00BFEBE74479020036
:1063F000707B0200447A0200E07602002DE9FC4145
:1064000005460F46BE88B7F80A80A81D00EBC604F3
:106410002088404501DD404600E02088608060889B
:10642000172801DA172000E0608860806288334610
:106430000D490420FFF70AF8A86978B1607968B1BE
:106440000A4903C9CDE90001ADF802606088ADF8E2
:10645000040069462846AA69904700BF0020607181
:106460002071BDE8FC81000098780200D876020017
:1064700070B50546287A00B170BD09480078FBF771
:1064800025FE0646FCF7C2F9044634B1054800680B
:1064900018B1204603490968884700BFECE70000AF
:1064A000832700209827002010B5044694F8540054
:1064B00028B1002084F854002046FCF789FE10BD66
:1064C00070B50546AC1D20880E49C989884218D18F
:1064D0006089022815D104F10C00FCF782FC10B190
:1064E000FDF7F4F80DE008480068FBF789FF064661
:1064F00036B10448806918B102488169304688473E
:1065000000BF70BD542B0020D47602002DE9F04767
:1065100004462079314901EB4010007F20B3206808
:1065200040F20C510D5800BF206840F214510E5833
:1065300000BF2068D0F8087500BF2068D0F810852B
:1065400000BFD4F800904FF0FF3211464846FFF7E5
:10655000E4F800BFD4F800904FF0FF3211464846EF
:10656000FFF7C7F800BF22E02068D0F80C5500BF45
:106570002068D0F8146500BF2068D0F8087500BF07
:106580002068D0F8108500BFD4F800904FF0FF329B
:1065900011464846FFF794F800BFD4F800904FF03A
:1065A000FF3211464846FFF774F800BF00BF681C71
:1065B00010B12846FEF79CFB701C10B13046FEF768
:1065C00097FB08F1010010B14046FEF791FB781CE3
:1065D00010B13846FEF78CFBBDE8F087FC2B00209D
:1065E0002DE9F04105460E46002400BF0EB1012002
:1065F00000E00020074637B900BF1FA26521002038
:10660000FBF702FE00BF00BF00BF0DB1012000E09C
:106610000020074637B900BF17A266210020FBF70C
:10662000F3FD00BF00BF32782146601CC4B26A543B
:106630002919708800F02DFF2044C4B22919B088B0
:1066400000F027FF2044C4B22919F08800F021FF90
:106650002044C4B200BF072C01D1012000E000207B
:10666000074637B900BF04A26E210020FBF7CCFD1E
:1066700000BF00BFBDE8F0812E2E5C2E2E5C2E2EBA
:106680005C2E2E5C2E2E5C2E2E5C636F6D706F6EFA
:10669000656E74735C626C655C626C655F73657279
:1066A00076696365735C626C655F6469735C626C78
:1066B000655F6469732E630070B53EDF044600BFFA
:1066C00025463DB100BF04A24FF489712846FBF76F
:1066D0009BFD00BF00BF70BD2E2E5C2E2E5C2E2EAB
:1066E0005C6D61696E2E63000149086070470000AF
:1066F0004015014001480068704700000415014042
:1067000010B504460348046007211120FAF798FFEA
:1067100010BD00000815014010B54FF480300A4943
:1067200008600A49C1F804031120FAF74FFF11204D
:10673000FAF764FF0120054908602F20FEF72CF8C6
:1067400001200349087010BD4413014000100140AE
:10675000D227002010B51120012181400E4A4309A3
:1067600042F8231000BF4FF480300C4908600C49F8
:10677000C1F80803012048602F20FEF70DF8012022
:10678000074988600020074908602F20FEF704F8B9
:1067900000200549087010BD80E100E04813014069
:1067A00000100140C4270020D227002070B5054604
:1067B0000C46E07D40B94FF484712846FEF762FF35
:1067C00000BFD5F8180570BD4FF484712846FEF758
:1067D00059FF00BFD5F81805C0B2627EE168885441
:1067E000607E401C607600BFEDE77FB504460D4635
:1067F000164601208DF800008DF808500196684675
:10680000D4E9001290477FBD10B504462046FBF73F
:106810000DF910B942F2010010BD2146002906DA37
:10682000194A01F00F031B1FD25C520902E0174AFC
:10683000525C52091046082801D3002109E028B112
:10684000012803D0042801D0052801D1002100E04F
:10685000012111B942F20200DEE70D48806868B1FB
:1068600060090B4951F8200004F01F0201219140FA
:1068700008436109064A42F8210002E02046FAF77F
:10688000C8FE0020C8E7000018ED00E000E400E0CA
:106890003C2C002070B50446FBF7E4F8054614488C
:1068A0008068D8B9012012498860124800681249EE
:1068B00008400F49086010484FF0E021C1F88001FE
:1068C0000C488038D0F88400094948604FF0FF3107
:1068D0000848001D01600020207001E001202070A8
:1068E0001DB900BF62B600BF00BF002070BD000030
:1068F0003C2C002080E100E0FC06FFBD10B5002428
:106900000248FEF78DF90446204610BDD42700202A
:106910002DE9F04105460C46012622462946074846
:10692000FAF78EFCE2B205490548FEF7C3F80746C0
:1069300007B100263046BDE8F0810000BC2D0020E4
:10694000D42700202DE9F04707460E4614469A4604
:10695000B86A10B90720BDE8F0874FF0000836E0AC
:1069600008EB4801B86A00EB8105A88800F102092C
:10697000B9F1FE0F01D90C20EDE709F101002188E2
:1069800070542088401C2080162021887054208854
:10699000401C208022889119288800F074FD2188ED
:1069A00008442080A88800280DDDA86808B90720C1
:1069B000D1E7AA8823889819A968FAF741FC2088AA
:1069C000A9880844208008F1010000F0FF0897F82A
:1069D0002C004045C4DC0020BDE7000010B5FCF7EA
:1069E000E3FE0248FDF7EAFC10BD00001C27002072
:1069F00001460120044A10700448486001200870D4
:106A00000020888148817047822700208527002048
:106A100001460220064A10700648486001200870AE
:106A20000548808988810448008948810020704792
:106A30008227002085270020A02A002070B5044668
:106A40001248008A60811148808AA0810F4800782E
:106A5000B0B10F48007898B900F024FE80B1022050
:106A6000207204200B49C87000210A48FBF7A6FDDC
:106A700005460DB1284670BD05200749087002E0A3
:106A80000320054908700020F5E70000A02A002037
:106A90009C270020C02A00208227002070B50446D1
:106AA0001248008B60811148808BA0810F480078CC
:106AB000B0B10F48007898B900F0F4FD80B1022021
:106AC000207204200B49C87000210A48FBF776FDAC
:106AD00005460DB1284670BD06200749087002E042
